:100000000C943D0D0C94650D0C94650D0C94650DD0
:100010000C94650D0C94650D0C94650D0C94650D98
:100020000C94650D0C94650D0C94B3160C9422176A
:100030000C94650D0C94650D0C94650D0C94650D78
:100040000C94650D0C94650D0C94650D0C94650D68
:100050000C94650D0C94650D0C94650D0C9454195D
:100060000C94650D0C94650D0C94650D0C94650D48
:100070000C94650D0C94650D0C94650D0C94650D38
:100080000C949E190C94650D0C94650D0C94650DE3
:100090000C94650D0C94650D0C94650D0C94650D18
:1000A0000C94650D0C94650D0C94650D1B1B0000E4
:1000B0000000000000000000000000000000000040
:1000C0000000000000000000000000000000000030
:1000D0000000000000000000000000000000000020
:1000E0000000000000000000000000000000000010
:1000F0000080008000F0B0FC3CFEDEFFDEFFDEFF93
:10010000DEFFDEFF3CFEB0FC00F00080008000005F
:1001100000000000000000000000000C081C0C1E85
:100120000C1E060F060F039F94FF2FFF57FF5AFF69
:10013000DDFF3DFF81FF3DFFDDFF5AFF57FF2FFF32
:1001400094FF039F060F060F0C1E0C1E081C000CCC
:100150000000000000000000000000030103010394
:100160000001000000000001000101030001000186
:100170000000000000010103010300030000000073
:100180000000000000001B1B000000000000000039
:10019000000000000000000000000000000000005F
:1001A000000000000000000000000000000000004F
:1001B000000000000000000000000000000000003F
:1001C000000000000000008000800080008000F03F
:1001D000B0FC3CFEDEFFDEFFDEFFDEFFDEFF3CFEAE
:1001E000B0FC00F000800080000000000000000073
:1001F00000000000000000000000000303070307E8
:10020000031F14FFAFFF57FF5AFFDDFF3DFF81FFC4
:100210003DFFDDFF5AFF57FF2FFFD4FF83FF068FFF
:10022000060F0C1E0C1E081C000C00000000000035
:1002300000000000000000030103010300010000B2
:1002400000010001010300010001000000000000A6
:10025000000100010001000000000000000000009B
:100260001B1B000000000000000000000000000058
:10027000000000000000000000000000000000007E
:10028000000000000000000000000000000000006E
:10029000000000000000000000000000000000F06E
:1002A000E0F0E0F0C0E080C000F0B0FC3CFEDEFF1B
:1002B000DEFFDEFFDEFFDEFF3CFEB0FC00F0008074
:1002C00000800000000000000000000000000000AE
:1002D00000000000000000010001011F14FFAFFF3B
:1002E00057FF5AFFDDFF3DFF81FF3DFFDDFF5AFF56
:1002F00057FF2FFF54FF43FF06CF0E1F1C3E183C35
:1003000000380000000000000000000000000000B5
:1003100000000003010300010000000100010103CF
:1003200000010001000000000000000000000000CB
:10033000000000000000000000001B1B0000000087
:1003400000000000000000000000000000000000AD
:10035000000000000000000000000000000000009D
:10036000000000000000000000000000000000008D
:100370000000000000000000003030F8F8FCE0F859
:10038000C0E000F0B0FC3CFEDEFFDEFFDEFFDEFF83
:10039000DEFF3CFEB0FC00F00080008000000000AA
:1003A000000000000000000000000000000000004D
:1003B00000000001011F143F2FFFD7FF5AFFDDFF90
:1003C0003DFF81FF3DFFDDFF5AFF57FF2FFF54FF29
:1003D000017F0E3F1C3E001C0000000000000000DA
:1003E0000000000000000000000000000000000706
:1003F00001030001000100010103000100010000F0
:1004000000000000000000000000000000000000EC
:10041000000000001B1B00000000000000000000A6
:1004200000000000000000000000000000000000CC
:1004300000000000000000000000000000000000BC
:1004400000000000000000000000000000000000AC
:10045000007060F0E0F0E0F0C0E080C000F0B0FCC0
:100460003CFEDEFFDEFFDEFFDEFFDEFF3CFEB0FC1B
:1004700000F000800080000000000000000000008C
:100480000000000000000000000000010001011F4A
:1004900014FFAFFF57FF5AFFDDFF3DFF81FF3DFF18
:1004A000DDFF5AFF57FF2FFF54FF43FF06CF0E1FFC
:1004B0001C3E183C00380000000000000000000056
:1004C0000000000000000003010300010000000123
:1004D0000001010300010001000000000000000015
:1004E00000000000000000000000000000001B1BD6
:1004F00000000000000000000000000000000000FC
:1005000000000000000000000000000000000000EB
:1005100000000000000000000000000000000000DB
:1005200000000000000000000000000000000000CB
:1005300000000080008000F0B0FC3CFEDEFFDEFF2B
:10054000DEFFDEFFDEFF3CFEB0FC00F0008000803E
:100550000000000000000000000000000000000695
:10056000060F060F060F060F031F14FFAFFF57FFFE
:100570005AFFDDFF3DFF81FF3DFFDDFF5AFF57FFC3
:100580002FFFD4FF83FF068F060F0C1E0C1E081CC6
:10059000000C00000000000000000000000000034C
:1005A000010301030001000000010001010300013B
:1005B0000001000000000000000100010001000037
:1005C00000000000000000001B1B000000000000F5
:1005D000000000000000000000000000000000001B
:1005E000000000000000000000000000000000000B
:1005F00000000000000000000000000000000000FB
:1006000000000000000000000000000000800080EA
:1006100000F0B0FC3CFEDEFFDEFFDEFFDEFFDEFFB3
:100620003CFEB0FC00F000800080000000000000F4
:10063000000000000000000C081C0C1E0C1E060F21
:10064000060F039F94FF2FFF57FF5AFFDDFF3DFF6B
:1006500081FF3DFFDDFF5AFF57FF2FFF94FF039FF0
:10066000060F060F0C1E0C1E081C000C00000000DC
:10067000000000000000000301030103000100006E
:100680000000000100010103000100010000000062
:10069000000101030103000300000000000000004E
:1006A00000001B1B00000000000000000000000014
:1006B000000000000000000000000000000000003A
:1006C000000000000000000000000000000000002A
:1006D000000000000000000000000000000000001A
:1006E0000000000000000080008000F0B0FC3CFE34
:1006F000DEFFDEFFDEFFDEFFDEFF3CFEB0FC00F0D3
:1007000000800080008000800000000000000000E9
:10071000000C081C0C1E0C1E060F068F83FFD4FF56
:100720002FFF57FF5AFFDDFF3DFF81FF3DFFDDFF3C
:100730005AFF57FFAFFF14FF031F03070307000310
:1007400000000000000000000000000000000000A9
:100750000001000100010000000000000001000194
:100760000103000100010000000101030103000377
:100770000000000000000000000000001B1B000043
:100780000000000000000000000000000000000069
:100790000000000000000000000000000000000059
:1007A0000000000000000000000000000000000049
:1007B0000000000000000000000000000000000039
:1007C0000080008000F0B0FC3CFEDEFFDEFFDEFFBC
:1007D000DEFFDEFF3CFEB0FC00F080C0C0E0E0F0D9
:1007E000E0F000F000000000000000000038183CBD
:1007F0001C3E0E1F06CF43FF54FF2FFF57FF5AFF2B
:10080000DDFF3DFF81FF3DFFDDFF5AFF57FFAFFFDB
:1008100014FF011F000100010000000000000000A3
:1008200000000000000000000000000000000000C8
:1008300000000000000000010001010300010001B0
:1008400000000001010300030000000000000000A0
:100850000000000000001B1B000000000000000062
:100860000000000000000000000000000000000088
:100870000000000000000000000000000000000078
:100880000000000000000000000000000000000068
:10089000000000000000000000000080008000F068
:1008A000B0FC3CFEDEFFDEFFDEFFDEFFDEFF3CFED7
:1008B000B0FC00F0C0E0E0F8F8FC30F800300000D8
:1008C00000000000000000000000001C1C3E0E1F85
:1008D000017F54FF2FFF57FF5AFFDDFF3DFF81FFD0
:1008E0003DFFDDFF5AFFD7FF2FFF143F011F00011F
:1008F00000000000000000000000000000000000F8
:1009000000000000000000000000000000000000E7
:1009100000010001010300010001000101030007C3
:1009200000000000000000000000000000000000C7
:100930001B1B000000000000000000000000000081
:1009400000000000000000000000000000000000A7
:100950000000000000000000000000000000000097
:100960000000000000000000000000000000000087
:10097000000000000080008000F0B0FC3CFEDEFFC4
:10098000DEFFDEFFDEFFDEFF3CFEB0FC00F080C0DD
:10099000C0E0E0F0E0F060F0007000000000000057
:1009A0000038183C1C3E0E1F06CF43FF54FF2FFF9C
:1009B00057FF5AFFDDFF3DFF81FF3DFFDDFF5AFF7F
:1009C00057FFAFFF14FF011F0001000100000000EE
:1009D0000000000000000000000000000000000017
:1009E0000000000000000000000000010001010301
:1009F00000010001000000010103000300000000ED
:100A0000000000000000000000001B1B00000000B0
:100A100000000000000000000000000000000000D6
:100A200000000000000000000000000000000000C6
:100A300000000000000000000000000000000000B6
:100A40000000000000000000000000000000008026
:100A5000008000F0B0FC3CFEDEFFDEFFDEFFDEFFCC
:100A6000DEFF3CFEB0FC00F00080008000000000D3
:100A70000000000000000000000C081C0C1E0C1EF2
:100A8000060F068F83FFD4FF2FFF57FF5AFFDDFFAE
:100A90003DFF81FF3DFFDDFF5AFF57FFAFFF14FF12
:100AA000031F060F060F060F060F000600000000CA
:100AB0000000000000000000000100010001000033
:100AC000000000000001000101030001000100001E
:100AD000000101030103000300000000000000000A
:100AE00000000000090900000000000000FEFEFFF9
:100AF00000FE0000000000000000000000000000F8
:100B000000010000000000000000090900000000D2
:100B1000003838FEFEFF38FE0038000000000000FC
:100B200000000000000000010000000000000000C4
:100B300009090000003838FEFEFFFEFFFEFF38FE08
:100B4000003800000000000000000001000100016A
:100B50000000000000000909003838FE7CFEFEFF9E
:100B6000FEFFFEFF7CFE38FE0038000000000000A3
:100B70000001000100010000000000000808202022
:100B80006161C3C3FEFEA0E0F8F89C9C0404080861
:100B9000000000004848F0F0E0E090900000000005
:100BA000804000FF00FF00FF00FF00FF00FF00FF8C
:100BB00000FF00FF00FF00FF00FF00FF00FF80FFBD
:100BC00080FF40FF40FF20FF20FF20FF10FF10FFAD
:100BD00010FF10FF88FF88FF84FF84FF84FF84FFDD
:100BE00084FF84FF88FF08FF08FF88FF08FF10FFCD
:100BF00010FF10FF20FF20FF40FF40FF80FF80FF1D
:100C000000FF00FF00FF00FF00FF00FF00FF00FFEC
:100C100000FF00FF00FF00FF00FF00FF00FF00FFDC
:100C200000FF00FF00FF80FF80FF80FF80FF80FF4C
:100C300080FF80FF80FF80FF80FF80FF00FF00FFBC
:100C400000FF00FF00FF00FF00FF00FF00FF00FFAC
:100C500000FF00FF00FF00FF00FF00FF00FF00FF9C
:100C600000FF00FF00FF00FF00FF00FF00FF00FF8C
:100C700000FF00FF00FF00FF00FF00FF00FF00FF7C
:100C800000FF00FF00FF00FF00FF00FF00FF00FF6C
:100C900000FF00FF00FF00FF00FF00FF00FF00FF5C
:100CA00000FF00FF00FF80FF40FF20FF10FF10FF4C
:100CB00008FF04FF04FF02FF61FF61FF31FF30FF07
:100CC00018FF18FF00FF00FF3EFF3EFF3EFF7EFFC4
:100CD0007FFF7FFFFFFFFFFFFFFF7FFF3FFF1FFF44
:100CE0001FFF9FFF8FFFC0FFE0FFE7FFE7FFE7FF6A
:100CF000E6FFC6FFCEFFCCFFC8FF88FF00FF20FF46
:100D0000E1FFE1FFC2FF82FF04FF08FF10FF20FFA9
:100D100040FF20FF10FF08FF04FF82FFC2FFE1FF3A
:100D2000E1FFF1FFF1FFF0FFF8FFF8FFF8FFF8FF38
:100D3000F8FFF8FFF8FFF8FFF8FFF0FFF1FFE1FF21
:100D4000E2FFC2FF84FF08FF08FF10FF20FFC0FF83
:100D500000FF00FF00FF00FF00FF00FF00FF00FF9B
:100D600000FF00FF20FF10FF10FFF0FF10FF10FF3B
:100D700088FF40FF00FF80FF40FF00FF40FF80FF33
:100D800040FF40FF80FF20FF28FFF0FF20FF20FFF3
:100D900000FF00FF00FF00FF00FF00FF00FF00FF5B
:100DA00000FF02FF01FF20FF30FF38FF1CFF0EFF96
:100DB000C3FFE0FFF8FFFCFFFCFFFCFFFEFFFFFFAF
:100DC000FFFFFFFFFFFFFFFFFFFFFFFFFEFFFEFF35
:100DD000FEFFFCFF00FF00FFFCFFFCFFFEFFFFFF2C
:100DE000FFFFFFFFFFFFFFFFFFFFFFFFFFFF7FFF93
:100DF0007FFF3FFF3FFF3FFF3FFF3FFF3EFF18FFEB
:100E000000FF03FF1FFF0FFF0FFF84FFC0FFC0FFA6
:100E1000F0FFF0FFFCFFFEFFFFFFFFFFFFFFFFFF04
:100E20008FFF8FFF8FFFFFFFFFFFFFFFFFFFFFFF22
:100E30008FFF8FFF8FFFFFFFFFFFFFFFFFFFFFFF12
:100E4000FFFFFFFFFFFFFFFF00FF00FF00FFFFFFAF
:100E500000FF00FF00FF00FF00FF00FF00FF00FF9A
:100E600000FF00FF00FF00FF00FF07FF00FF00FF83
:100E700003FF04FF04FF03FF04FF00FF04FF03FF61
:100E800000FF00FF00FF00FF00FF03FF04FF00FF63
:100E900000FF00FF00FF00FF00FF00FF00FF00FF5A
:100EA00000FFFFFFFFFFFFFFFFFFFFFFF8FF70FFE7
:100EB00003FF07FFCFFF8FFF9FFF9FFF9FFF9FFF56
:100EC0001FFF3FFF3FFF1FFF0FFFCFFFC7FFE7FFE2
:100ED000F3FFF3FFF0FFF8FFF9FFF9FFF9FFF9FF68
:100EE000F9FFF1FFF3FFF3FF03FF01FF00FFF8FF3E
:100EF000FCFFFCFFFCFFFCFFFEFFFEFFFEFFFEFF12
:100F0000FFFFFFFFFFFFFFFFFFFFFFFFFFFFFFFFF1
:100F1000FFFFFFFF1FFF1FFF1FFF3FFF7FFF7FFF41
:100F20007FFF7FFF7FFF7FFF7FFF7FFF7FFF7FFFD1
:100F30003FFF3FFF3FFF3FFFFFFFFFFFFFFFFFFFC1
:100F4000FFFFFFFF3FFF0FFF00FF80FF70FF0FFF5E
:100F500000FF00FF00FF00FF00FF00FF00FF00FF99
:100F600000FF00FF00FF00FF00FF00FF00FF00FF89
:100F700000FF00FF00FF00FF00FF00FF00FF00FF79
:100F800000FF00FF00FF00FF00FF00FF00FF00FF69
:100F900000FF00FF00FF00FF00FF00FF00FF00FF59
:100FA00000FFC3FFC3FFC3FFC7FF07FF03FF00FF2F
:100FB00008FF0FFF1FFF1FFF1FFF1FFF1FFF3FFF48
:100FC0003FFF3FFF3FFF3EFF3CFF30FF03FF07FFB8
:100FD0000FFF3FFF3FFF7FFF7FFF7FFF7FFF7FFF11
:100FE0007FFF7FFF7FFF7FFF70FF40FF00FF07FF56
:100FF0000FFF1FFF3FFF7FFFFFFFFFFFFFFFFFFF11
:10100000FFFFFFFFFFFFFFFFFFFFFFFFFFFFFFFFF0
:10101000FFFFFFFFFFFFFEFFFEFFFCFFFCFFFCFFEB
:10102000FCFFFCFFFCFFFCFFFCFFFCFFFCFFFCFFE8
:10103000FCFFFCFFFEFFFFFFFFFF7FFF1FFF07FF1F
:1010400003FFC0FF20FF18FF04FF03FF00FF00FFA6
:1010500000FF00FF00FF00FF00FF00FF00FF00FF98
:1010600000FF00FF00FF00FF00FF00FF00FF00FF88
:1010700000FF00FF00FF00FF00FF00FF00FF00FF78
:1010800000FF00FF00FF00FF00FF00FF00FF00FF68
:1010900000FF00FF00FF00FF00FF00FF00FF00FF58
:1010A00000FF23FF23FF43FF40FF40FF46FF47FFB2
:1010B0008FFF8FFF8FFF8FFF0FFF0FFF0EFF0EFFC2
:1010C0001EFF1EFF0EFF02FF80FFC0FFF8FFFCFFA8
:1010D000FCFFFCFFFCFFFCFFFCFFFCFFFCFFFCFF38
:1010E000FCFFFCFFFCFFFCFFFCFFFCFF00FF00FF20
:1010F00000FF3CFF18FF00FF80FF81FF43FF43FF1D
:1011000043FFC7FF07FF07FF0FFF0FFF0FFF0FFF93
:101110000FFF8FFF8FFF0FFF0FFF0FFF1FFF1FFF3F
:101120001FFF0FFF0FFF0FFF8FFF8FFF8FFF87FF47
:1011300047FF43FF43FF21FF10FF10FF08FF04FF9D
:1011400003FF00FF00FF00FF00FF00FF00FF00FFA4
:1011500000FF00FF00FF00FF00FF00FF00FF00FF97
:1011600000FF00FF00FF00FF00FF00FF00FF00FF87
:1011700000FF00FF00FF00FF00FF00FF00FF00FF77
:1011800000FF00FF00FF00FF00FF00FF00FF00FF67
:1011900000FF00FF00FF00FF00FF00FF00FF00FF57
:1011A00000FF00FF00FF00FF00FFF0FF08FF04FF4B
:1011B00002FF42FF61FF71FF70FF70FFF8FFF8FF51
:1011C000FCFFFCFFFFFFFFFFFFFFFFFFFFFFFFFF35
:1011D000FFFFFFFFFFFFFFFFFFFFFFFFFFFFFFFF1F
:1011E0007FFF3FFF1FFF0FFF03FF80FF60FF10FF28
:1011F0000FFF01FF01FF01FF00FF00FF00FF00FFE5
:1012000000FF00FF01FF03FF04FF04FF04FF04FFD2
:1012100004FF04FF04FF04FF04FF04FF02FF01FFBB
:1012200001FF01FF01FF01FF00FF00FF00FF00FFC2
:1012300000FF00FF00FF00FF00FF00FF00FF00FFB6
:1012400000FF00FF00FF00FF00FF00FF00FF00FFA6
:1012500000FF00FF00FF00FF00FF00FF00FF00FF96
:1012600000FF00FF00FF00FF00FF00FF00FF00FF86
:1012700000FF00FF00FF00FF00FF00FF00FF00FF76
:1012800000FF00FF00FF00FF00FF00FF00FF00FF66
:1012900000FF00FF00FF00FF00FF00FF00FF00FF56
:1012A00000FF00FF00FF00FF00FF03FF04FF04FF3B
:1012B00004FF04FF04FF04FF08FF08FF08FF08FF06
:1012C00010FF21FF23FF23FF23FF23FF23FF23FF23
:1012D00023FF23FF23FF23FF11FF11FF11FF08FF4F
:1012E00008FF04FF02FF02FF01FF00FF00FF00FFF5
:1012F00000FF00FF00FF00FF00FF00FF00FF00FFF6
:1013000000FF00FF00FF00FF00FF00FF00FF00FFE5
:1013100000FF00FF00FF00FF00FF00FF00FF00FFD5
:1013200000FF00FF00FF00FF00FF00FF00FF00FFC5
:1013300000FF00FF00FF00FF00FF00FF00FF00FFB5
:1013400000FF00FF00FF00FF00FF00FF00FF00FFA5
:1013500000FF00FF00FF00FF00FF00FF00FF00FF95
:1013600000FF00FF00FF00FF00FF00FF00FF00FF85
:1013700000FF00FF00FF00FF00FF00FF00FF00FF75
:1013800000FF00FF00FF00FF00FF00FF00FF00FF65
:1013900000FF00FF00FF00FF00FF00FF00FF00FF55
:1013A00000FF00000000003E5B4F5B3E3E6B4F6B5A
:1013B0003E1C3E7C3E1C183C7E3C181C577D571C36
:1013C0001C5E7F5E1C00183C1800FFE7C3E7FF00AF
:1013D00018241800FFE7DBE7FF30483A060E2629FD
:1013E000792926407F050507407F05253F5A3CE7C0
:1013F0003C5A7F3E1C1C08081C1C3E7F14227F2286
:10140000145F5F005F5F06097F017F006689956A50
:10141000606060606094A2FFA29408047E040810DB
:10142000207E201008082A1C08081C2A08081E1004
:101430001010100C1E0C1E0C30383E3830060E3EBC
:101440000E06000000000000005F0000000700071B
:1014500000147F147F14242A7F2A12231308646245
:1014600036495620500008070300001C22410000A6
:1014700041221C002A1C7F1C2A08083E0808008004
:10148000703000080808080800006060002010089C
:1014900004023E5149453E00427F4000724949499D
:1014A000462141494D331814127F102745454539CF
:1014B0003C4A4949314121110907364949493646D3
:1014C0004949291E000014000000403400000008B3
:1014D0001422411414141414004122140802015956
:1014E00009063E415D594E7C1211127C7F494949E3
:1014F000363E414141227F4141413E7F4949494178
:101500007F090909013E414151737F0808087F00A6
:10151000417F41002040413F017F081422417F402C
:101520004040407F021C027F7F0408107F3E414103
:10153000413E7F090909063E4151215E7F09192973
:1015400046264949493203017F01033F4040403F5D
:101550001F2040201F3F4038403F6314081463039E
:10156000047804036159494D43007F41414102041D
:10157000081020004141417F040201020440404024
:101580004040000307080020545478407F2844441A
:10159000383844444428384444287F385454541834
:1015A00000087E090218A4A49C787F08040478002F
:1015B000447D40002040403D007F10284400004111
:1015C0007F40007C047804787C0804047838444424
:1015D0004438FC1824241818242418FC7C0804041B
:1015E00008485454542404043F44243C4040207C84
:1015F0001C2040201C3C4030403C44281028444CD7
:101600009090907C4464544C4400083641000000A3
:10161000770000004136080002010204023C262344
:10162000263C1EA1A161123A4040207A38545455FC
:1016300059215555794121545478412155547840C8
:1016400020545579400C1E5272123955555559394E
:101650005454545939555454580000457C410002A3
:10166000457D420001457C40F0292429F0F02825E1
:1016700028F07C545545002054547C547C0A097F42
:101680004932494949323248484832324A4848305A
:101690003A4141217A3A42402078009DA0A07D390C
:1016A000444444393D4040403D3C24FF2424487E8E
:1016B0004943662B2FFC2F2BFF0929F620C0887E7B
:1016C000090320545479410000447D413048484A80
:1016D00032384040227A007A0A0A727D0D19317D33
:1016E0002629292F28262929292630484D40203807
:1016F0000808080808080808382F10C8ACBA2F10C6
:101700002834FA00007B000008142A142222142A2C
:1017100014089500220095AA005500AAAA55AA55BA
:10172000AA000000FF00101010FF00141414FF00A6
:101730001010FF00FF1010F010F0141414FC00142F
:1017400014F700FF0000FF00FF1414F404FC14144D
:1017500017101F10101F101F1414141F001010104A
:10176000F0000000001F101010101F10101010F0DB
:1017700010000000FF101010101010101010FF10BB
:10178000000000FF140000FF00FF00001F10170002
:1017900000FC04F414141710171414F404F40000DB
:1017A000FF00F714141414141414F700F71414148D
:1017B000171410101F101F141414F4141010F0102C
:1017C000F000001F101F0000001F14000000FC1498
:1017D0000000F010F01010FF10FF141414FF14108C
:1017E00010101F00000000F010FFFFFFFFFFF0F0DF
:1017F000F0F0F0FFFFFF0000000000FFFF0F0F0FF1
:101800000F0F38444438447C2A2A3E147E020206D4
:1018100006027E027E0263554941633844443C041B
:10182000407E201E2006027E020299A5E7A5991C93
:101830002A492A1C4C7201724C304A4D4D303048B6
:10184000784830BC625A463D3E494949007E010114
:10185000017E2A2A2A2A2A44445F444440514A44A9
:101860004040444A51400000FF0103E080FF000077
:1018700008086B6B083612362436060F090F06006F
:101880000018180000001010003040FF0101001F78
:1018900001011E00191D1712003C3C3C3C000000D9
:1018A0000000F0F89C8E8783878E9CF8F00000FE85
:1018B000FF0303030303070EFCF80000FEFF03030E
:1018C000030303070EFCF80000FFFF000000000008
:1018D0000000FFFF0000FEFF8383838383C7EE7C4D
:1018E000380000F8FC0E07030303070EFCF80000A5
:1018F0003F7FE0C08080C0E07F3FFFFF010101012A
:10190000010101FFFF0000FFFF0C0C0C0C1C3E77D7
:10191000E3C100007FFFC0C0C0C0C0E0703F1F0037
:10192000001F3F70E0C0C0C0E0703F1F00007FFF9D
:10193000C1C1C1C1C1E3773E1C00001F3F70E0C0C0
:10194000C0C0E0703F1F000000000001FFFF010069
:101950000000D5F08D14A1C881CFD9F1AF2000933C
:1019600002FA00DC03FA005504FA002705F4012707
:1019700005FA00DC03FA007003FA00E402FA003F03
:1019800003FA00E402FA009302F4019302FA006EF3
:1019900002FA002A02FA00EE01FA00DC03FA007DE6
:1019A00006FA002705F4012705FA00B807FA00E057
:1019B00006FA007D06FA00C805FA002705FA00DDE0
:1019C00004FA005504FA001704FA00DC03FA009345
:1019D000023E003F033E0055043E0027053E000145
:1019E00080070605040100080A0B0C0D092D083EAE
:1019F0000020063E0027053E00008027053E00200F
:101A0000063E002D083E000080080B000202020086
:101A10000009040000010202000005240010010575
:101A200024010101042402060524060001070581A2
:101A30000310004009040100020A0000000705022B
:101A4000024000000705830240000004030904125D
:101A5000010002EF02014041233680000101020330
:101A60000141726475696E6F204C4C430041726491
:101A700075626F790000321AE22011241FBECFEF89
:101A8000DAE0DEBFCDBF11E0A0E0B1E0EAE8FEE4BD
:101A900002C005900D92AC38B107D9F726E0ACE84A
:101AA000B1E001C01D92A634B207E1F71DE0CCE31E
:101AB000DDE004C02197FE010E944025CB33D10711
:101AC000C9F70E94701A0C9438270C94000080917A
:101AD0009F010895E1EDF1E0A0E0B8E000800EBCC8
:101AE0008111012C1197A0FDFDCF0192B9F70DB422
:101AF0000895AC014770552721E001C0220F4A9597
:101B0000EAF797FD0796FC0183E0F595E7958A953E
:101B1000E1F7F695FE2FEE27F795E795EF52FE4F8A
:101B200091E8915031F08191DF011197822B8C93D4
:101B3000F8CF08958F929F92AF92BF92CF92DF928B
:101B4000EF92FF921F93CF93DF93DC014115510574
:101B500009F4B2C0FA01D4913196E491ED2EF12C42
:101B60006C01CE0CDF1C1C141D040CF0A5C08038C9
:101B700091050CF0A1C0CB018E0F911D181619060E
:101B80000CF09AC0603471050CF096C0C62FC77077
:101B9000CB0177FD079613E0959587951A95E1F7A8
:101BA000382F77FF04C0CC2311F03FEF380F882780
:101BB00099278A1B9B0BB7FD02C090E080E020E8CC
:101BC0002A1BF0E8CF16D1040CF42D2F281BC32EAE
:101BD000032E000CDD086C2D60953F3F0CF060E09B
:101BE00011E07E2F777009F410E0E695E695E69512
:101BF0001E0FC10ED11C79E0C716D10414F018E0F5
:101C0000131B161B360F70E83703F0011124AE0FBB
:101C1000BF1FA80FB91FAF52BE4FC22ED12CFA0161
:101C20003296D69F800D911D1124880F991FE80FC1
:101C3000F91F60E870E06C197D09A7014C195D0976
:101C4000440F551F81E090E07C010C2E01C0EE0C8A
:101C50000A94EAF7822E9C2ECF93DF93ED01EF9644
:101C6000EF962296A590C590992059F0AE9C500110
:101C7000CE9C600137302CF4F880D094FD20FB28F6
:101C8000F99233233AF0FC90C094FC20FA28FD929C
:101C90000C944B0E11962A9529F71A9551F0282D80
:101CA00033951124E40FF11DA60FB11DC60FD11DF0
:101CB000D9CFDF91CF911124DF91CF911F91FF9068
:101CC000EF90DF90CF90BF90AF909F908F9008954E
:101CD000FC018091D001882311F13FB7F89482E094
:101CE0008093E9002091F200822F90E018161906E7
:101CF00014F481E090E0882339F0289844E640937A
:101D0000CF014091F1004083222339F02091F2006D
:101D1000211103C02BE62093E8003FBF08958FEF09
:101D20009FEF08952FB7F89483E08093E900909196
:101D3000E800892F807295FF04C09091F20080E442
:101D4000891B2FBF08958091C70181110DC082E0CA
:101D50008093C30184E08093C4011092C601109265
:101D6000C50181E08093C70183EC91E00895CF9392
:101D7000DF931F92CDB7DEB76983DC01ED91FC9153
:101D80000280F381E02D41E050E0BE016F5F7F4FA4
:101D900009950F90DF91CF91089583E08093E9003A
:101DA0008091F200882319F08AE38093E800089577
:101DB0000E94920E90E00895CF93DF931F92CDB7CB
:101DC000DEB7FC018485958597FD08C02FEF3FEFB6
:101DD000358724870F90DF91CF910895CE0101962A
:101DE0000E94680E019719F4898190E0F3CF8FEF7C
:101DF0009FEFF0CF0F931F93CF93DF931F92CDB739
:101E0000DEB78C01FC018485958597FF0BC0CE0160
:101E100001960E94680E019771F4898190E0F801A3
:101E200095878487F801848595850F90DF91CF9100
:101E30001F910F9108958FEF9FEFF1CFFC018485E3
:101E4000958597FD0BC09FB7F89482E08093E900D9
:101E50008091F2009FBF90E0019608959FB7F8949B
:101E600082E08093E9008091F2009FBF90E00895A6
:101E70004091BD015091BE012091BB013091BC0148
:101E800042175307B4F49091E8009570E1F39091F4
:101E9000E80092FD19C08093F1008091BD019091FE
:101EA000BE0101968F739927892B19F48EEF8093C9
:101EB000E8008091BD019091BE0101969093BE0112
:101EC0008093BD0181E0089580E00895DF92EF9254
:101ED000FF920F931F93CF93DF93D82E8A01EB01CC
:101EE0007B01E40EF51ECE15DF0559F0D7FE12C0BA
:101EF000FE0184910E94380F21968111F4CF0FEFDB
:101F00001FEFC801DF91CF911F910F91FF90EF90CC
:101F1000DF9008958881EECF0F931F93CF93DF93C7
:101F20001F92CDB7DEB782E0898342E450E069E0DA
:101F30007AE180E80E94660F0E94A30EDC011296EF
:101F40000D911C910115110589F0D801ED91FC91BD
:101F50000280F381E02DBE016F5F7F4FC8010995BC
:101F600097FD04C0F80100851185ECCF89810F90A1
:101F7000DF91CF911F910F910895615030F0209122
:101F8000F100FC0120830196F8CF289884E6809325
:101F9000CF010895AF92BF92CF92DF92EF92FF925E
:101FA0000F931F93CF93DF936C017B018B01040F81
:101FB000151FEB015E01AE18BF08C017D10759F01D
:101FC0006991D601ED91FC910190F081E02DC6015F
:101FD0000995892B79F7C501DF91CF911F910F9159
:101FE000FF90EF90DF90CF90BF90AF9008953FB7F4
:101FF000F89480919B0190919C01A0919D01B091DA
:102000009E0126B5A89B05C02F3F19F00196A11D82
:10201000B11D3FBFBA2FA92F982F8827BC01CD0132
:10202000620F711D811D911D42E0660F771F881F91
:10203000991F4A95D1F708958F929F92AF92BF92C0
:10204000CF92DF92EF92FF926B017C010E94F70F1B
:102050004B015C01C114D104E104F104B9F00E9408
:10206000F70F681979098A099B09683E7340810551
:10207000910580F321E0C21AD108E108F10888EE49
:10208000880E83E0981EA11CB11CE4CFFF90EF9056
:10209000DF90CF90BF90AF909F908F9008958F92D8
:1020A0009F92AF92BF92CF92DF92EF92FF920F93E7
:1020B0001F93CF93DF936C017B018A0180913201E2
:1020C000882309F45CC08091D001882309F457C0AB
:1020D0008091C20180FF05C08091E0008260809302
:1020E000E000E801B12C8AEFA82E93E0892E2AE3C4
:1020F000922E209711F4BB20D9F10E94920E8111EB
:102100000AC0AA94AA20D9F161E070E080E090E0D2
:102110000E941C10EECF8C171D0611F00CF08C2FB6
:102120009FB7F8948092E9002091E80025FD02C055
:102130009FBFDFCF282F30E0C21BD30BF7018150A8
:1021400020F041914093F100FACFE20EF31EBB2044
:1021500021F09092E800B12CEBCF8091E80085FD52
:10216000E7CF9092E800BB24B394209709F3F3CF14
:102170005D9884E68093C101101611063CF081E061
:1021800090E0F6019383828310E000E0C801DF91C4
:10219000CF911F910F91FF90EF90DF90CF90BF9064
:1021A000AF909F908F90089520919301E0919101BD
:1021B000F0919201CF010296909392018093910148
:1021C000222319F085919491089580819181089539
:1021D000CF92DF92EF92FF92CF93DF930E94D410C1
:1021E000811520E8920791F4809171008D7F809392
:1021F0007100109291004698479810929001DF91DB
:10220000CF91FF90EF90DF90CF90089521E0209341
:102210009001813020E8920751F480918E019091D5
:102220008F0190939201809391010E94D41097FDA9
:1022300005C020918D01222309F454C020918C0106
:10224000211150C021E020939401EC01DF77209709
:1022500009F04BC081E08093950146983FE9C32E79
:102260003FE0D32EE12CF12CCAEFD0E0E0912F0615
:10227000F09130060995811103C081E080939501AA
:1022800080919401882329F080919501882309F495
:102290003FC047980E94D4100097F1F19C01DE01E5
:1022A0000E949723DC01CB0129E0B595A79597956E
:1022B00087952A95D1F7109290002AE020939100FB
:1022C000D0929900C09298008093960190939701C4
:1022D000A0939801B09399018091710082608093DE
:1022E00071008DCF10929401B0CF9E0150E040E07C
:1022F00060E472E48FE090E00E940C2369017A01AF
:1023000081E0C81AD108E108F10810929501AECF1A
:102310004699BFCF479ABECF8FEF9FEFDC01CBCF5F
:102320009C01E1E7F0E090819D7F908381E08093C4
:102330009301309392012093910130938F01209368
:102340008E010C94E8102D9A0895BC0190E080E075
:102350000C941C108FB18095807F669B88601C9BBD
:102360008460089520E191E061FD94E060FD990FA3
:1023700062FD9295687F269FD0011124A80FAF526D
:10238000BE4F8C9140FF03C0892B8C93089590958C
:102390008923FBCF80E0E1EDF1E081118FEF002494
:1023A00081938193819381930394D1F71092A70134
:1023B0001092A6011092A9011092A80108958F927F
:1023C0009F92AF92BF92CF92DF92EF92FF920F93C4
:1023D0001F93CF93DF936D3089F0C090A601D0900A
:1023E000A7016A30D1F41092A9011092A80188E0E7
:1023F000C80ED11CD092A701C092A60181E090E046
:10240000DF91CF911F910F91FF90EF90DF90CF90D0
:10241000BF90AF909F908F9008950091A801109168
:10242000A901E5E06E9FE0011124CE55DC4E580174
:10243000F12CF5E0E12CFF1629F0CE010196FE010A
:10244000E490EC01912C812CF0E8AF16B10458F423
:10245000B601680D791D6034710528F44E2D417068
:10246000C5010E94B211E6948FEF881A980AE8E03D
:102470008E16910449F7F394FFEFAF1ABF0A86E076
:10248000F812D7CF0A5F1F4F1093A9010093A8013C
:10249000B5CF80E00C946A0D0F931F93CF93DF9319
:1024A0008B01EC016A857B856115710551F0CE01C8
:1024B000F80109951816190624F00A84DB85C02D49
:1024C000F1CFCE01DF91CF911F910F9108954F92DF
:1024D0005F926F927F928F929F92AF92BF92CF92B4
:1024E000DF92EF92FF920F931F93CF93DF93FC0144
:1024F0002281338122303105F4F05B016C012C0123
:10250000F4E04F0E511C7201F701C081D181209778
:10251000D1F3B501CE010E944C124C01FC010285A1
:10252000138501151105C1F4E414F50461F7F601F2
:10253000978386831486DF91CF911F910F91FF902F
:10254000EF90DF90CF90BF90AF909F908F907F9053
:102550006F905F904F900895B501C8010E944C1292
:10256000FC0162847384F40113861286FC011386D5
:102570001286B801CE01F5010995F7011816190662
:102580006CF0D183C0837E01FAE0EF0EF11C8A85E6
:102590009B85009781F41B870A871CC011830083E9
:1025A0007801FAE0EF0EF11CF8018285938500971F
:1025B000D1F08C01CE01EC01DCCFEC018A859B854A
:1025C0000097D9F77B866A867E01FAE0EF0EF11C50
:1025D0009BCF8C01F801828593850097D1F7738694
:1025E00062867801F2CFD387C287E8CF0F931F931B
:1025F000CF93DF93CDB7DEB72A970FB6F894DEBF3F
:102600000FBECDBF8C01D801ED91FC910190F081FE
:10261000E02DC8010995181619065CF4D801ED9152
:10262000FC910684F785E02DB801CE01019609954D
:10263000EACF2A960FB6F894DEBF0FBECDBFDF916A
:10264000CF911F910F910895DC011496ED91FC91AB
:1026500015971C968C911C978823B1F01A962D9192
:102660003C911B97621773077CF01896ED91FC91D3
:102670001997261737075CF43097C1F00284F38569
:10268000E02D2F5F3F4FF5CF30E020E0F2CF26174F
:10269000370771F481E01C968C931C971B963C9332
:1026A0002E931A971996FC93EE931897CF010895DD
:1026B000F0E0E0E0FBCFCF92DF92EF92FF920F933A
:1026C0001F93CF93DF93CDB7DEB72A970FB6F89459
:1026D000DEBF0FBECDBFC982DA82EB82FC820D83E2
:1026E0001E832F83388749875A8777FD20C0FC01D6
:1026F0002281338162177307D4F40E942413DC0112
:102700009AE0FE01319601900D929A95E1F781E0F1
:102710002A960FB6F894DEBF0FBECDBFDF91CF91E2
:102720001F910F91FF90EF90DF90CF90089580E080
:10273000EFCFCF93DF93EC01CB01BA010E942413BA
:10274000FC01892B51F09AE0DE0101900D929A95DF
:10275000E1F7CE01DF91CF9108958AE0FE01119259
:102760008A95E9F7F6CFFC01828193810895089557
:1027700090E080E00895009769F0FC01019000204E
:10278000E9F73197AF01481B590BBC018EE396E086
:102790000C94CA0F90E080E00895CF92DF92EF9200
:1027A000FF920F931F93CF93DF93CDB7DEB72A9796
:1027B0000FB6F894DEBF0FBECDBF7C018B01FB01CD
:1027C0006281738116161706ACF08AE0F701119248
:1027D0008A95E9F7C7012A960FB6F894DEBF0FBEB7
:1027E000CDBFDF91CF911F910F91FF90EF90DF90C0
:1027F000CF90089514866130710539F162507109E6
:10280000C8010E9424136C01FC01828593852AE093
:10281000FC01DE01119601900D922A95E1F70E94CC
:10282000E225F60113861286F801D782C6828281DC
:1028300093810197938382838AE0FE013196D701C9
:1028400001900D928A95E1F7C5CF848195812AE0A8
:10285000FC01DE01119601900D922A95E1F70E948C
:10286000E225F801158214821782168213821282E1
:10287000E3CFCF92DF92EF92FF920F931F93CF930C
:10288000DF93CDB7DEB72A970FB6F894DEBF0FBE41
:10289000CDBF7C018B01DB0112968D919C9113972A
:1028A00018161906ACF08AE0F70111928A95E9F73B
:1028B000C7012A960FB6F894DEBF0FBECDBFDF91D9
:1028C000CF911F910F91FF90EF90DF90CF900895DF
:1028D000019741F114968D919C91FC01C284D3849F
:1028E0002AE0DE01119601900D922A95E1F70E94EF
:1028F000E225D8011596DC92CE92149712968D910E
:102900009C911397019713969C938E9312971C9604
:102910001C928AE0FE013196D70101900D928A95B2
:10292000E1F7C6CFED91FC910484F585E02DC70158
:102930000995BECFEF92FF920F931F93CF93DF9332
:10294000CDB7DEB72A970FB6F894DEBF0FBECDBF66
:102950007C018B0157FD08C0DB0112968D919C9183
:102960001397481759079CF08AE0F70111928A954E
:10297000E9F7C7012A960FB6F894DEBF0FBECDBFA8
:10298000DF91CF911F910F91FF90EF900895411526
:10299000510549F4ED91FC910684F785E02DB801CD
:1029A000C7010995E6CF01978417950731F4ED919A
:1029B000FC910484F585E02DF2CFBA0161507109D4
:1029C000C8010E9424139C01FC01828593854AE082
:1029D000FC01DE01119601900D924A95E1F7DC01B0
:1029E0001A964D915C91F901538742870E94E22526
:1029F000D80112968D919C911397019713969C93F1
:102A00008E9312971C961C928AE0FE013196D70194
:102A100001900D928A95E1F7ACCFCF92DF92EF92C1
:102A2000FF920F931F93CF93DF93CDB7DEB76297DB
:102A30000FB6F894DEBF0FBECDBF8C01CB01F801FD
:102A40001182108213821282158214824AE09E0142
:102A50002F5F3F4F6901B9010E949D21F60101904E
:102A60000020E9F731977F01EC18FD08F80180811B
:102A70009181009729F0228133812E153F0590F432
:102A8000B7016F5F7F4F0E946B26F801009799F0A6
:102A900091838083F382E28224813581232B11F498
:102AA000FC011082F801F582E482B60180819181F7
:102AB0000E9431270DC080819181009711F00E9402
:102AC000E225F8011182108215821482138212828B
:102AD00062960FB6F894DEBF0FBECDBFDF91CF91E7
:102AE0001F910F91FF90EF90DF90CF9008950C947D
:102AF000F622CF92DF92EF92FF920F931F93CF9324
:102B0000DF93CDB7DEB72A970FB6F894DEBF0FBEBE
:102B1000CDBF6C01E982FA820B831C832D833E8337
:102B20004F83588769877A87DC0112960D911C9133
:102B3000139701151105B9F4ED91FC910480F5810D
:102B4000E02D0B811C8109952A960FB6F894DEBF03
:102B50000FBECDBFDF91CF911F910F91FF90EF90EE
:102B6000DF90CF9008958CE090E00E944625F6011A
:102B700024813581DC011B963C932E931A972AE021
:102B8000FE01319601900D922A95E1F7F6019583A9
:102B900084830F5F1F4F13830283148681E0D4CF99
:102BA0008F929F92AF92BF92CF92DF92EF92FF925D
:102BB0000F931F93CF93DF93CDB7DEB72A970FB64E
:102BC000F894DEBF0FBECDBF5C014B01C982DA8233
:102BD000EB82FC820D831E832F83388749875A87B7
:102BE000DC0112968D919C911397681779071CF15F
:102BF000ED91FC910480F581E02D76010B811C8123
:102C00002D813E814F81588569857A85C501099559
:102C10002A960FB6F894DEBF0FBECDBFDF91CF91DD
:102C20001F910F91FF90EF90DF90CF90BF90AF90EA
:102C30009F908F900895672B41F4ED91FC91068051
:102C4000F781E02DE980FA80D9CF8CE090E00E94F6
:102C500046258C018CE0F80111928A95E9F7B401C0
:102C600061507109C5010E9424132AE0FE013196CA
:102C7000D80101900D922A95E1F7DC011A962D9169
:102C80003C911B97F801338722871B961C930E9368
:102C90001A97D50112968D919C91139701961396D0
:102CA0009C938E9312971C961C9281E0B1CFCF9289
:102CB000DF92EF92FF920F931F93CF93DF93CDB7E5
:102CC000DEB72A970FB6F894DEBF0FBECDBF6C01FA
:102CD000E982FA820B831C832D833E834F835887BE
:102CE00069877A878CE090E00E9446252CE0DC0121
:102CF0001D922A95E9F72AE0FE013196DC01019048
:102D00000D922A95E1F7F60124813581232B31F1CB
:102D10000680F781E02D93878287D60117969C93D2
:102D20008E931697D60112968D919C9113970196CA
:102D300013969C938E9312971C961C9281E02A9670
:102D40000FB6F894DEBF0FBECDBFDF91CF911F91BC
:102D50000F91FF90EF90DF90CF900895958384833B
:102D600097838683DFCF1F920F920FB60F921124A5
:102D70008F939F938091E1009091E100937F9093D6
:102D8000E10083FF0FC01092E90091E09093EB0007
:102D90001092EC0092E39093ED001092D00198E035
:102DA0009093F00082FF22C093E09093E90090910D
:102DB000F200992319F09AE39093E8009091C101F1
:102DC000992341F09091C10191509093C1019111CB
:102DD00001C05D9A9091CF01992341F09091CF016C
:102DE00091509093CF01911101C0289A84FF18C08F
:102DF0008091E2008E7E81608093E2008091E1000C
:102E00008F7E8093E1008091C2018E7E80618093ED
:102E1000C2019F918F910F900FBE0F901F90189538
:102E200080FFF7CF8091E2008E7E80618093E20088
:102E30008091E1008E7E8093E1008091C2018E7EC0
:102E40008160E5CF1F920F920FB60F921124CF929F
:102E5000DF92EF92FF920F931F932F933F934F9325
:102E60005F936F937F938F939F93AF93BF93EF93F2
:102E7000FF93CF93DF93CDB7DEB76C97DEBFCDBFA7
:102E80001092E9008091E80083FF25C068E0CE0140
:102E900045960E94BD0F82EF8093E8008D8987FFE1
:102EA00039C09091E80090FFFCCF982F907609F000
:102EB00034C19E894F89588D2F89F88C911131C06A
:102EC000803861F58091C0018093F1001092F1008B
:102ED0008EEF8093E8006C960FB6F894DEBF0FBEBD
:102EE000CDBFDF91CF91FF91EF91BF91AF919F91B6
:102EF0008F917F916F915F914F913F912F911F9192
:102F00000F91FF90EF90DF90CF900F900FBE0F903A
:102F10001F9018959EEF9093E800C7CF1092F10094
:102F2000D5CF913059F48111D3CF4130510581F67D
:102F30008091C0018D7F8093C001CACF933049F446
:102F40008111C6CF4130510519F68091C0018260D0
:102F5000F2CF953041F48091E80080FFFCCF2068EB
:102F60002093E300B5CF963009F0A9C00B8D1C8DDE
:102F700022E01092E9001092BE011092BD01F212FF
:102F80002EC01092BC011092BB010E948C0F1F82B8
:102F900099E09983FA8291E09E8390EA98879AEF6C
:102FA00099872091BD013091BE01275F3F4F3C833F
:102FB0002B838D831092E9001092BE011092BD0107
:102FC0001093BC010093BB0149E050E0BE016F5F6C
:102FD0007F4F80E00E94660F0E948C0F79CF109384
:102FE000BC010093BB010E94A30EDC0112960D915F
:102FF0001C910115110509F451C1D801ED91FC9105
:103000000480F581E02DBE016B5E7F4FC8010995FC
:10301000009709F03EC1F80100851185EACFF3E081
:10302000FF120EC08F89882309F440C0823061F4FA
:1030300040E867E08DE69AE10E94FF19811148CFD0
:1030400081E28093EB0047CF813029F440E86BE0C8
:1030500081E69AE1F1CF833099F70E94A30EDC015B
:103060001296ED90FC908E010F5F1F4F6801E114E6
:10307000F10479F0D701ED91FC910680F781E02D04
:10308000B801C7010995080F111DF701E084F1840B
:10309000EECFD8011C92F60101900020E9F731979C
:1030A000BF016C197D0940E0C601C6CF6BE47AE12F
:1030B000FB01449150E080E80E94660F09CF9730F1
:1030C00009F4BECF983021F481E08093F10000CF65
:1030D000993009F0FDCE837009F0B2CFEEE3F1E054
:1030E00081E031E096E32191222371F08093E900A1
:1030F0003093EB00DF0111972C912093EC0090931B
:10310000ED008F5F873079F78EE78093EA001092A9
:10311000EA008F898093D001DBCE8B8D9C8D10923D
:10312000E9001092BE011092BD019093BC01809302
:10313000BB01898D811192C08E899D89913A49F494
:10314000813209F07DCF47E050E06BE271E080E032
:10315000B3CF913209F074CF833269F48F89988D9F
:10316000B0E0A0E08093270190932801A09329016B
:10317000B0932A01ADCE803269F48091E80082FFDD
:10318000FCCF67E08BE291E00E94BD0F8BEF809354
:10319000E8009ECE823209F09BCE8F898093320167
:1031A000EEEFFFE7859194918B3F9C4D51F1E0E06C
:1031B000F8E080912B0190912C01A0912D01B0910C
:1031C0002E01803B9440A105B105F1F480913201BC
:1031D00080FD1AC0EE3F8AE0F80789F587E797E798
:1031E00091838083809160008093BF0188E19BE0A0
:1031F0000FB6F894A895809360000FBE909360007E
:1032000067CEEEEFFAE0D5CF80819181873797477F
:1032100009F05ECEA895809160008861809360007F
:103220008091BF0180936000EE3F2AE0F20789F0B1
:103230008091FE0A9091FF0A9183808349CE80811C
:1032400091818737980751F29093FF0A8093FE0A85
:10325000C5CF1092FF0A1092FE0A3ACE0E94A30E2A
:10326000DC0112960D911C910115110509F4E8CEAF
:10327000D801ED91FC910190F081E02DBE016B5ED3
:103280007F4FC8010995811123CEF8010085118572
:10329000EBCF181619060CF41BCED2CEF1E0FF12BC
:1032A000BECE6FE47AE104CF1F920F920FB60F9259
:1032B00011242F933F938F939F93AF93BF9380914C
:1032C000A0019091A101A091A201B091A301309120
:1032D0009A0123E0230F2D3758F50196A11DB11D4A
:1032E00020939A018093A0019093A101A093A20141
:1032F000B093A30180919B0190919C01A0919D01AD
:10330000B0919E010196A11DB11D80939B019093E8
:103310009C01A0939D01B0939E01BF91AF919F919D
:103320008F913F912F910F900FBE0F901F90189586
:1033300026E8230F0296A11DB11DD2CF1F920F9236
:103340000FB60F9211242F933F934F935F936F9378
:103350007F938F939F93AF93BF93EF93FF9380914E
:10336000960190919701A0919801B0919901892BB4
:103370008A2B8B2B09F440C08091950181110BC0E1
:1033800088B190E4892788B980919401882319F045
:1033900088B1805888B98091960190919701A09149
:1033A0009801B0919901181619061A061B069CF48B
:1033B0008091960190919701A0919801B091990107
:1033C0000197A109B1098093960190939701A09369
:1033D0009801B0939901FF91EF91BF91AF919F91A7
:1033E0008F917F916F915F914F913F912F910F90AE
:1033F0000FBE0F901F9018950E94E810ECCFEF922F
:10340000FF920F931F93CF93DF93F82E192FE62E81
:10341000042F81E0860F880F0E94380F83E00E94FE
:10342000380FCF2DD12FEC0EFD2EF11CCE15DF0560
:10343000B9F007FF13C0FE0184910E94380F182FC6
:1034400080E00E94380F812321968111EFCFDF9118
:10345000CF911F910F91FF90EF9008958881EDCF4C
:1034600081E0F5CFE1EDF5E01382128288EE93E082
:10347000A0E0B0E084839583A683B78388E491E0DD
:10348000918380838FEF9FEF95878487EEE3F6E04B
:103490001382128284E791E09183808387E69DE026
:1034A0009093300680932F0680E090E890932E064C
:1034B00080932D0646983E9A47983F9AE1E3F6E0BE
:1034C0008AE591E0918380831582148217821682A7
:1034D000138212821186108613861286148608952E
:1034E000CF93DF93CDB7DEB768970FB6F894DEBF02
:1034F0000FBECDBF789484B5826084BD84B58160F1
:1035000084BD85B5826085BD85B5816085BD8091AE
:103510006E00816080936E00109281008091810026
:10352000826080938100809181008160809381001E
:103530008091800081608093800080919100826002
:10354000809391008091910081608093910080919F
:1035500090008160809390008091C100846080938E
:10356000C1008091C10082608093C1008091C10040
:1035700081608093C1008091C30081608093C3000B
:103580008091C00082608093C0008091C200816001
:103590008093C20080917A00846080937A00809149
:1035A0007A00826080937A0080917A0081608093B3
:1035B0007A0080917A00806880937A001092D0011E
:1035C0001092C0011092C2018091D7008160809357
:1035D000D70080EA8093D80089B5806189BD89B51C
:1035E000826089BD09B400FEFDCF61E070E080E03B
:1035F00090E00E941C108091D8008F7C80618093A5
:10360000D8008091E000807F8093E0008091E1000D
:103610008E7E8093E1008DE08093E200559A209A9F
:1036200081EC80937C0085B1806F85B984B1877E01
:1036300084B984B1876E84B95E9A5F988AB1806DCF
:103640008AB9769A6E9881B3806F81BB899880B36E
:103650008D7080BB80E58CBD81E08DBD85E090E004
:103660000E94A5115F9A85E090E00E94A5115E98E6
:103670005C98E2E5F9E18FE599E124912EBD000027
:103680000DB407FEFDCF31968E179F07B1F75C9AF8
:1036900081E880936400809165008160809365007B
:1036A0000E9449120E94AA1187FF15C05C9885EA02
:1036B0008EBD00000DB407FEFDCF5C9A2E982F98AA
:1036C0002D988091640080628093640081E083BFC4
:1036D000889513BEFCCF0E94AA1182FF48C02D9886
:1036E0000E94AA1184788438E1F40E94A31188EC26
:1036F00090E00E94A5112F9882E090E00E94F622AF
:103700008F3F29F06FEF82E090E00E94FE2284EF6D
:1037100091E00E94A5112F9A0E94AA118478843802
:10372000D9F30E94AA1184718431E1F40E94A3119B
:1037300088EC90E00E94A5112E9882E090E00E9413
:10374000F622882329F060E082E090E00E94FE22C9
:1037500084EF91E00E94A5112E9A0E94AA11847113
:103760008431D9F388EC90E00E94A511B4CF0E9477
:10377000A31182E090E00E947715882309F449C0E4
:103780003E9A3F9A81E080939F0181E090E00E9401
:103790007715282F2470522E81FF0FC021112E98EB
:1037A00001EF1FEF78E0A72EB12C0E94AA1186FF2F
:1037B00035C02E9A2F9A0E94A31182E390E00E94B6
:1037C000A5110E94AA118111F8CF80E18093000118
:1037D0001092B6011092B5018FE599E10E94901107
:1037E0008FB7F8944091A0015091A1016091A2017E
:1037F0007091A3018FBF8091A401882309F4D1C0E7
:103800001092A40180E090E0892B51F30E94000007
:10381000E7CF10929F013E983F98B7CF552029F0EF
:103820000430110511F42E9A2F9881E00E946A0D40
:10383000980117FF04C022273327201B310B277064
:103840003327C80117FD079663E0959587956A951C
:10385000E1F717FF05C00197A501421B530B9A0121
:10386000BC017695762F6627779567956F527E4FC8
:10387000B0E0A0E01501221A330A8E3F5FEF9507F2
:1038800009F43FC07B0150E040E0FD01EE55F74EEA
:103890004F013B01F0E86F0E711C8F3F980779F0E4
:1038A000F401E40FF51FE491F0E06F01022E01C076
:1038B000CC0C0A94EAF7F701D488CD28C48A2115E4
:1038C0003105B9F0F401E40FF51F44906301C40E13
:1038D000D51EE42DF0E0022C02C0F595E7950A9480
:1038E000E2F7FE8BED8BF6014488FD894F2AF60145
:1038F000448A4F5F5F4FFFEFEF1AFF0A48355105CB
:1039000061F60196A85ABF4F60587F4FA03BB105A2
:1039100009F0B3CF0E9449128FE090E00E94A511F8
:103920000F5F1F4F0931110509F03FCF552011F0EE
:103930002F9A2D9880E991E00E94A5110E94A31171
:1039400081E090E00E94771580FF37CF8AE090E019
:103950000E9477159FEF980F9E3F08F02ECF22E32D
:1039600030E03093A9012093A80128E330E03093A0
:10397000A7012093A6010BE010E0682F8EE396E0EC
:103980000E94DF11C8010E9477150F5F1F4F0131A0
:10399000110599F70E94491288EE93E00E94A51143
:1039A0000CCF8091A501242F281B822F909100011C
:1039B000291748F48F5F891708F024CF81E083BF6F
:1039C000889513BE1FCFDD24D394D092A4014093D9
:1039D000A5010091AA011091AB010F5F1F4F109339
:1039E000AB010093AA018091B9019091BA010196AF
:1039F0009093BA018093B901E090AD01E092AC01DF
:103A00000E94AA11F82E8093AD018091B701909188
:103A1000B801009709F0ADC08091B5019091B60151
:103A2000843691050CF0A2C001969093B601809364
:103A3000B5010E94CA116091B5017091B601072EBF
:103A4000000C880B990B0E94D92120E030E048EC53
:103A500052E40E9413249B01AC0160E070E080E816
:103A60009FE30E94A62320E030E040E053EC0E9458
:103A700038220E948524CB0140EA5BE070E060E0E0
:103A80000E949A0DE2FC02C0F2FC04C0E3FC45C0B7
:103A9000F3FE43C031E03093B7011092B80180E4E7
:103AA00090E09093B3018093B20180E390E0909313
:103AB000AF018093AE0181E08093B4011092B10117
:103AC0001092B001E1EEF9E1E49190917B008E2F2C
:103AD000880F880F80729F7D892B80937B00E77011
:103AE000E064E0937C0080917A00806480937A00A7
:103AF00080917A0086FDFCCF8091780060917900FA
:103B0000762F682F072E000C880B990B6115710515
:103B10008105910511F00E9494218091B4018823C0
:103B200011F190E080E00E94790D8FE390E00E9417
:103B3000790D10E000E041E0B80190E080E00E94E3
:103B4000B2110F5F1F4F00341105A9F710E000E01C
:103B500041E0B8018FE790E00E94B2110F5F1F4F64
:103B600000341105A9F70E9449124CCED092B4013D
:103B700060CF019791F60E94AA1185FF09C080913C
:103B8000B2019091B30101979093B3018093B20178
:103B90000E94AA1186FF09C08091B2019091B301E1
:103BA00001969093B3018093B201E090B201F0903E
:103BB000B301B7010F2C000C880B990B0E94D9217F
:103BC0004B015C0120E030E045EE52E40E94D2213E
:103BD00087FF12C120E030E048E651E4C501B4019E
:103BE0000E94D22187FF03C04EE0E42EF12CF09218
:103BF000B301E092B201C80169E470E00E941825A7
:103C0000892B39F50E944521EE24E394E9821A823A
:103C10002CE630E040E050E00E940C23DC01CB01B8
:103C20000A96A11DB11D082F9C838B8386E1282F46
:103C30008D831E821F82188619861A86F12C1C819C
:103C400030E040E0588569857A8581E396E00E94FE
:103C500057168091AA019091AB0166E670E00E9430
:103C60001825892B39F50E94452123E0E22EE982AF
:103C70001A822CE630E040E050E00E940C23DC0188
:103C8000CB010A96A11DB11D082F9C838B8386E171
:103C9000282F8D831E821F82188619861A86F12C82
:103CA0001C8130E040E0588569857A8581E396E0A3
:103CB0000E9457160E94CA1143E04093A801109237
:103CC000A9014093A6011092A7018CE791E00E9400
:103CD000BB136091B0017091B101CE0101960E94B9
:103CE0000D1589819A810E94BB1389819A81009761
:103CF00011F00E94E22588E891E00E94BB136091D8
:103D0000250170912601CE0101960E940D15898131
:103D10009A810E94BB1389819A81009711F00E94B9
:103D2000E22586E190E00E94790D10E000E0B80104
:103D3000012E000C880B990B0E94D9214B015C01CC
:103D40000430110509F45CC06091B9017091BA01A9
:103D500090E080E00E94D72120E030E040E05FE387
:103D60000E9438226B017C0120E030E040E85EE3F5
:103D7000C501B4010E94382220E030E048EC52E452
:103D80000E9438229B01AC01C701B6010E94A72303
:103D90000E948524CB0164E670E00E942C25BC01C2
:103DA000990F880B990B0E94D92120E030E048EC54
:103DB00052E40E9413246B017C01AC019B010E9420
:103DC0003822A70196010E94382220E030E048E224
:103DD00052E40E94382220E030E040EB51E40E949F
:103DE000A7230E9485246034710518F4CB010E943A
:103DF000790D0F5F1F4F9BCF32E7E32EF12CF7CEEB
:103E0000B12CA12C8091330690913406A816B906E6
:103E10000CF06BC1A50161E376E0CE010B960E9428
:103E20009913C988DA88EB88FC880D851E858B85F7
:103E30009C858130910539F0039709F479C05FEFD3
:103E4000A51AB50ADFCF6091250170912601072ED2
:103E5000000C880B990B0E94D9212AE037ED43EA28
:103E60005BE30E943822A70196010E94A723F62E49
:103E7000672E782EE92E262F372F482F592F0E9494
:103E800038222F2D362D472D5E2D0E94382220E01E
:103E900030E048E252E40E94382220E030E040EB7B
:103EA00051E40E94A7230E9485241B014B016B0152
:103EB00058E0C51AD10820E030E040E05FE36F2D04
:103EC000762D872D9E2D0E94D2214EE85BE087FD46
:103ED00002C04CE75BE0B601C8010E949A0D89E47C
:103EE000881691045CF0A50161E376E0CE010196AD
:103EF0000E949A1491E0A91AB108A1CF022D388A24
:103F00002F862F2D8F2D962DA72DBE2D898B9A8B29
:103F1000AB8BBC8BCB84DC84ED84FE8418893A891E
:103F20004B895C89B50181E396E00E945B1387CFE2
:103F30006091250170912601072E000C880B990BCA
:103F40000E94D9212AE037ED43EA5BE30E94382240
:103F5000A70196010E94A723F62EC72ED82EE92E80
:103F6000262F372F482F592F0E9438222F2D3C2DD6
:103F70004D2D5E2D0E94382220E030E048E252E4D0
:103F80000E94382220E030E040EB51E40E94A72359
:103F90000E9485246D8B7E8B8F8B988F8D889E8859
:103FA00020E030E040E851E46F2D7C2D8D2D9E2DDA
:103FB0000E9438220E948524CB0166E070E00E94B6
:103FC0002C25FC01EE0FFF1FE75EFE4F4081518163
:103FD000B40169507109C8010E949A0DED89FE89EA
:103FE000BF01FF0F880B990B0E94D92120E030E020
:103FF0004AE452E40E94132518168CF5B801110FFB
:10400000880B990B0E94D92120E030E040E950E470
:104010000E94A7232B013C016091B2017091B30172
:10402000072E000C880B990B0E94D9219B01AC0133
:10403000C301B2010E94A6232B013C0120E030E025
:10404000A9010E941325181624F520E030E048E568
:1040500051E4C301B2010E94D22187FD24C02AE4A9
:1040600082169104C4F1A50161E376E0CE010196C8
:104070000E949A1431E0A31AB1088091B001909186
:10408000B10101979093B1018093B0018DEE99E158
:104090001FC020E030E048E551ECC301B2010E94AE
:1040A00013251816E4F6A50161E376E0CE0101962A
:1040B0000E949A14F1E0AF1AB1088091B00190917A
:1040C000B10101969093B1018093B0018BEF99E11A
:1040D0000E949011B4CE0D894D895E89588B4F870F
:1040E0002F2D8F2D9C2DAD2D10CF6091B001709193
:1040F000B101072E000C880B990B0E94D92120E0FA
:1041000030E040E251E40E9413240E94BB246B0182
:104110007C0120E030E040E85FE30E94D22161E0D2
:1041200070E087FD04C0C701B6010E94852470932A
:104130002601609325016091B9017091BA0190E068
:1041400080E00E94D7212DEC3CEC4CEC5EE30E9419
:1041500038220E948524CB016CE070E00E942C255F
:10416000FC01EE0FFF1FEF5FFE4F00811181609198
:10417000AE017091AF01072E000C880B990B0E94C5
:10418000D92120E030E048E551E40E94A6230E94B6
:1041900085246B016091B2017091B301072E000C70
:1041A000880B990B0E94D92120E030E048E551E4CA
:1041B0000E94A6230E948524CB01A801B6010E947B
:1041C0009A0DABCC8AE591E090933206809331064C
:1041D0008091350690913606009751F0FC012285BA
:1041E000338530933606209335060E94E225F0CFC2
:1041F00008958F929F92AF92BF92CF92DF92EF92EB
:10420000FF92CF93DF93EC01688179818A819B8152
:10421000611571058105910521F464E279ED8BE565
:1042200097E02DE133EF41E050E00E940C2349017B
:104230005A019B01AC01A7EAB1E40E942B236B0158
:104240007C01ACEEB4EFA50194010E943923C60EA7
:10425000D71EE81EF91EF7FE06C081E0C81AD10875
:10426000E10880E8F80AC882D982EA82FB82C701A5
:10427000B6019F77DF91CF91FF90EF90DF90CF90C5
:10428000BF90AF909F908F9008958F929F92AF9222
:10429000BF92CF92DF92EF92FF92609133017091C3
:1042A00034018091350190913601611571058105C8
:1042B000910521F464E279ED8BE597E02DE133EF90
:1042C00041E050E00E940C2349015A019B01AC01DE
:1042D000A7EAB1E40E942B236B017C01ACEEB4EFA2
:1042E000A50194010E943923C60ED71EE81EF91EAF
:1042F000F7FE06C081E0C81AD108E10880E8F80A94
:10430000C0923301D0923401E0923501F09236012F
:10431000C701B6019F77FF90EF90DF90CF90BF90DD
:10432000AF909F908F900895609333017093340104
:1043300080933501909336010895BB274A3031F4BC
:10434000992322F4BDE2909581959F4F0C94A92169
:10435000BB27FB015527AA27880F991FAA1FA4175F
:1043600010F0A41B83955051B9F7A05DAA3308F053
:10437000A95DA193009779F7B111B1931192CB0187
:104380000C94C221DC01FC01672F71917723E1F7C6
:10439000329704C07C916D9370836291AE17BF0712
:1043A000C8F308950E94142208F481E00895E89467
:1043B00009C097FB3EF490958095709561957F4F6D
:1043C0008F4F9F4F9923A9F0F92F96E9BB2793951B
:1043D000F695879577956795B795F111F8CFFAF42B
:1043E000BB0F11F460FF1BC06F5F7F4F8F4F9F4F5C
:1043F00016C0882311F096E911C0772321F09EE8BA
:10440000872F762F05C0662371F096E8862F70E01F
:1044100060E02AF09A95660F771F881FDAF7880FF9
:104420009695879597F90895990F0008550FAA0B4F
:10443000E0E8FEEF16161706E807F907C0F01216B7
:104440001306E407F50798F0621B730B840B950BBA
:1044500039F40A2661F0232B242B252B21F408950F
:104460000A2609F4A140A6958FEF811D811D0895AC
:104470000E944B220C94BC220E94AE2238F00E9473
:10448000B52220F0952311F00C94A5220C94AB22B8
:1044900011240C94F0220E94CD2270F3959FC1F359
:1044A000950F50E0551F629FF001729FBB27F00DE2
:1044B000B11D639FAA27F00DB11DAA1F649F662737
:1044C000B00DA11D661F829F2227B00DA11D621F86
:1044D000739FB00DA11D621F839FA00D611D221F40
:1044E000749F3327A00D611D231F849F600D211D24
:1044F000822F762F6A2F11249F5750409AF0F1F0A7
:1045000088234AF0EE0FFF1FBB1F661F771F881F0F
:1045100091505040A9F79E3F510580F00C94A52280
:104520000C94F0225F3FE4F3983ED4F386957795A0
:104530006795B795F795E7959F5FC1F7FE2B880FB5
:10454000911D9695879597F9089597F99F6780E84B
:1045500070E060E008959FEF80EC089500240A94D5
:104560001616170618060906089500240A9412164E
:104570001306140605060895092E0394000C11F481
:10458000882352F0BB0F40F4BF2B11F460FF04C02E
:104590006F5F7F4F8F4F9F4F089557FD9058440F87
:1045A000551F59F05F3F71F04795880F97FB991F92
:1045B00061F09F3F79F0879508951216130614064F
:1045C000551FF2CF4695F1DF08C0161617061806DC
:1045D000991FF1CF86957105610508940895E894B7
:1045E000BB2766277727CB0197F90895F999FECF66
:1045F00092BD81BDF89A992780B50895262FF99923
:10460000FECF1FBA92BD81BD20BD0FB6F894FA9AB5
:10461000F99A0FBE01960895052E97FB1EF400949B
:104620000E94232357FD07D00E94752307FC03D067
:104630004EF40C94232350954095309521953F4F8F
:104640004F4F5F4F089590958095709561957F4F7E
:104650008F4F9F4F08950E949723A59F900DB49F61
:10466000900DA49F800D911D11240895B7FF0C9407
:104670002B230E942B23821B930B08952F923F9292
:104680004F925F926F927F928F929F92AF92BF9262
:10469000CF92DF92EF92FF920F931F93CF93DF930E
:1046A000CDB7DEB7CA1BDB0B0FB6F894DEBF0FBE6B
:1046B000CDBF09942A88398848885F846E847D84B8
:1046C0008C849B84AA84B984C884DF80EE80FD80BA
:1046D0000C811B81AA81B981CE0FD11D0FB6F89430
:1046E000DEBF0FBECDBFED010895A1E21A2EAA1BB9
:1046F000BB1BFD010DC0AA1FBB1FEE1FFF1FA21792
:10470000B307E407F50720F0A21BB30BE40BF50B8E
:10471000661F771F881F991F1A9469F76095709517
:10472000809590959B01AC01BD01CF010895A29F9A
:10473000B001B39FC001A39F700D811D1124911D75
:10474000B29F700D811D1124911D08955058BB27F3
:10475000AA270E94BE230C94BC220E94AE2238F0ED
:104760000E94B52220F039F49F3F19F426F40C94EE
:10477000AB220EF4E095E7FB0C94A522E92F0E94F2
:10478000CD2258F3BA17620773078407950720F004
:1047900079F4A6F50C94EF220EF4E0950B2EBA2FC7
:1047A000A02D0B01B90190010C01CA01A001112437
:1047B000FF27591B99F0593F50F4503E68F11A16E3
:1047C000F040A22F232F342F4427585FF3CF469574
:1047D00037952795A795F0405395C9F77EF41F1696
:1047E000BA0B620B730B840BBAF09150A1F0FF0F60
:1047F000BB1F661F771F881FC2F70EC0BA0F621F4C
:10480000731F841F48F4879577956795B795F7953B
:104810009E3F08F0B0CF9395880F08F09927EE0FD0
:104820009795879508950E9427240C94BC220E9496
:10483000B52258F00E94AE2240F029F45F3F29F0E3
:104840000C94A52251110C94F0220C94AB220E94DE
:10485000CD2268F39923B1F3552391F3951B550BA2
:10486000BB27AA2762177307840738F09F5F5F4F43
:10487000220F331F441FAA1FA9F335D00E2E3AF082
:10488000E0E832D091505040E695001CCAF72BD09A
:10489000FE2F29D0660F771F881FBB1F26173707EB
:1048A0004807AB07B0E809F0BB0B802DBF01FF271D
:1048B00093585F4F3AF09E3F510578F00C94A52233
:1048C0000C94F0225F3FE4F3983ED4F386957795FD
:1048D0006795B795F7959F5FC9F7880F911D9695D6
:1048E000879597F90895E1E0660F771F881FBB1F32
:1048F000621773078407BA0720F0621B730B840BDF
:10490000BA0BEE1F88F7E09508950E948C246894F6
:10491000B1110C94F02208950E94D52288F09F577F
:1049200098F0B92F9927B751B0F0E1F0660F771FD3
:10493000881F991F1AF0BA95C9F714C0B13091F0C9
:104940000E94EF22B1E008950C94EF22672F782F98
:104950008827B85F39F0B93FCCF38695779567958E
:10496000B395D9F73EF490958095709561957F4FFA
:104970008F4F9F4F08950E94FB2490F09F3748F47B
:10498000911116F00C94F02260E070E080E89FEB4B
:10499000089526F41B16611D711D811D0C94D224EF
:1049A0000C94ED24882371F4772321F09850872B01
:1049B000762F07C0662311F499270DC09051862BDE
:1049C00070E060E02AF09A95660F771F881FDAF78B
:1049D000880F9695879597F908959F3F31F09150EC
:1049E00020F4879577956795B795880F911D9695D3
:1049F000879597F908950E94D522A0F0BEE7B917D0
:104A000088F4BB279F3860F41616B11D672F782FE6
:104A10008827985FF7CF869577956795B11D939511
:104A20009639C8F308950E94142208F48FEF089570
:104A3000AA1BBB1B51E107C0AA1FBB1FA617B707C4
:104A400010F0A61BB70B881F991F5A95A9F78095E0
:104A50009095BC01CD01089597FB072E16F40094A4
:104A600007D077FD09D00E94182507FC05D03EF439
:104A7000909581959F4F0895709561957F4F08950A
:104A8000EE0FFF1F0590F491E02D09940F931F93F3
:104A9000CF93DF938230910510F482E090E0E091B3
:104AA0004406F091450630E020E0B0E0A0E0309709
:104AB00099F42115310509F44AC0281B390B24301B
:104AC0003105D8F58A819B816115710589F1FB015A
:104AD00093838283FE0111C0408151810281138141
:104AE00048175907E0F04817590799F4109761F0F3
:104AF00012960C93129713961C933296CF01DF9166
:104B0000CF911F910F91089500934406109345068D
:104B1000F4CF2115310551F04217530738F0A901A0
:104B2000DB019A01BD01DF01F801C1CFEF01F9CF2F
:104B30009093450680934406CDCFFE01E20FF31F0C
:104B4000819391932250310939832883D7CF2091C3
:104B5000420630914306232B41F4209139013091D4
:104B60003A01309343062093420620913701309159
:104B700038012115310541F42DB73EB740913B0175
:104B800050913C01241B350BE0914206F091430605
:104B9000E217F307A0F42E1B3F0B2817390778F014
:104BA000AC014E5F5F4F2417350748F04E0F5F1F73
:104BB0005093430640934206819391939FCFF0E038
:104BC000E0E09CCFCF93DF930097E9F0FC013297B0
:104BD00013821282A0914406B0914506ED0130E0A7
:104BE00020E01097A1F420813181820F931F209142
:104BF0004206309143062817390709F061C0F09347
:104C00004306E0934206DF91CF910895EA01CE1763
:104C1000DF07E8F54A815B819E0141155105B1F737
:104C2000E901FB83EA8349915991C40FD51FEC1721
:104C3000FD0761F4808191810296840F951FE9013F
:104C400099838883828193819B838A83F0E0E0E06B
:104C500012968D919C9113970097B9F52D913C91E7
:104C60001197CD010296820F931F20914206309139
:104C700043062817390739F6309751F51092450643
:104C800010924406B0934306A0934206BCCFD38350
:104C9000C28340815181840F951FC817D90761F4E1
:104CA0004E5F5F4F88819981480F591F5183408320
:104CB0008A819B81938382832115310509F0B0CFCE
:104CC000F0934506E09344069ECFFD01DC01C0CF82
:104CD00013821282D7CFB0E0A0E0E1E7F6E20C94B5
:104CE00040238C01009751F4CB010E9446258C0192
:104CF000C801CDB7DEB7E0E10C945C23FC01E60F00
:104D0000F71F9C0122503109E217F30708F49DC0F8
:104D1000D901CD91DC911197C617D70798F0C5300E
:104D2000D10530F3CE0104978617970708F3C61B09
:104D3000D70B2297C193D1936D937C93CF010E949F
:104D4000E225D6CF5B01AC1ABD0A4C018C0E9D1E2C
:104D5000A0914406B0914506512C412CF12CE12C38
:104D6000109731F580914206909143068815990578
:104D700009F05CC04616570608F058C0809137010C
:104D800090913801009741F48DB79EB740913B0157
:104D900050913C01841B950BE817F90708F055C0AA
:104DA000F0934306E0934206F90171836083A0CF3C
:104DB0008D919C91119712966C90129713967C90FE
:104DC0001397A815B90559F56C0142E0C40ED11C22
:104DD000CA14DB0420F1AC014A195B09DA0112960E
:104DE000159780F06282738251834083D9016D935D
:104DF0007C93E114F10471F0D7011396FC93EE93C8
:104E0000129776CF22968C0F9D1FF9019183808394
:104E1000F301EFCFF0934506E093440669CF4816BF
:104E2000590608F42C017D01D3019ACFCB010E94D1
:104E300046257C01009749F0AE01B8010E94282761
:104E4000C8010E94E225870153CF10E000E050CF57
:104E5000FB01DC0102C001900D9241505040D8F797
:104E60000895FB01DC0101900D920020E1F7089507
:104E70001DE0CCE3DDE004C0FE010E944025219648
:0A4E8000CD33D107C9F7F894FFCF36
:104E8A00100A0A300956087C07A206C805EE04145F
:104E9A00043A0360028601AC00560B300B0A0BE49D
:104EAA000A0A0B300B0100FFFFFFFF00E1000000C0
:104EBA000000000100000000004606800000C180DA
:104ECA008100000000000000B70E4F10D80ECD0E72
:104EDA001E0FDC0EFA0E00000000B313D015571691
:104EEA0079155B139A14CD1339149913F6126712B4
:104EFA0000000000DF11CA0FB813B713547572749B
:0C4F0A00636F696E733A200020202000C5
:00000001FF
